:100000000C9434000C943E000C943E000C943E0082
:100010000C943E000C943E000C943E000C943E0068
:100020000C943E000C943E000C943E000C943E0058
:100030000C943E000C943E000C943E000C943E0048
:100040000C943E000C943E000C943E000C943E0038
:100050000C943E000C943E000C943E000C943E0028
:100060000C943E000C943E0011241FBECFEFD4E050
:10007000DEBFCDBF0E9440000C9484000C940000B1
:1000800084B18FEF84B971E062E054E048E030E180
:1000900020E290E480E875B9E7E9FAE33197F1F7F7
:1000A00000C0000065B9E7E9FAE33197F1F700C055
:1000B000000055B9E7E9FAE33197F1F700C0000015
:1000C00045B9E7E9FAE33197F1F700C0000035B927
:1000D000E7E9FAE33197F1F700C0000025B9E7E955
:1000E000FAE33197F1F700C0000095B9E7E9FAE3C8
:1000F0003197F1F700C0000085B9E7E9FAE33197DD
:0C010000F1F700C00000C7CFF894FFCF5B
:00000001FF
